{
  "_format": "hh-sol-artifact-1",
  "contractName": "CustomNFT",
  "sourceName": "contracts/CustomNFT.sol",
  "abi": [
    {
      "inputs": [
        {
          "internalType": "string",
          "name": "name",
          "type": "string"
        },
        {
          "internalType": "string",
          "name": "symbol",
          "type": "string"
        }
      ],
      "stateMutability": "nonpayable",
      "type": "constructor"
    },
    {
      "anonymous": false,
      "inputs": [
        {
          "indexed": true,
          "internalType": "address",
          "name": "owner",
          "type": "address"
        },
        {
          "indexed": true,
          "internalType": "address",
          "name": "approved",
          "type": "address"
        },
        {
          "indexed": true,
          "internalType": "uint256",
          "name": "tokenId",
          "type": "uint256"
        }
      ],
      "name": "Approval",
      "type": "event"
    },
    {
      "anonymous": false,
      "inputs": [
        {
          "indexed": true,
          "internalType": "address",
          "name": "owner",
          "type": "address"
        },
        {
          "indexed": true,
          "internalType": "address",
          "name": "operator",
          "type": "address"
        },
        {
          "indexed": false,
          "internalType": "bool",
          "name": "approved",
          "type": "bool"
        }
      ],
      "name": "ApprovalForAll",
      "type": "event"
    },
    {
      "anonymous": false,
      "inputs": [
        {
          "indexed": true,
          "internalType": "address",
          "name": "previousOwner",
          "type": "address"
        },
        {
          "indexed": true,
          "internalType": "address",
          "name": "newOwner",
          "type": "address"
        }
      ],
      "name": "OwnershipTransferred",
      "type": "event"
    },
    {
      "anonymous": false,
      "inputs": [
        {
          "indexed": true,
          "internalType": "address",
          "name": "from",
          "type": "address"
        },
        {
          "indexed": true,
          "internalType": "address",
          "name": "to",
          "type": "address"
        },
        {
          "indexed": true,
          "internalType": "uint256",
          "name": "tokenId",
          "type": "uint256"
        }
      ],
      "name": "Transfer",
      "type": "event"
    },
    {
      "inputs": [
        {
          "internalType": "address",
          "name": "to",
          "type": "address"
        },
        {
          "internalType": "uint256",
          "name": "tokenId",
          "type": "uint256"
        }
      ],
      "name": "approve",
      "outputs": [],
      "stateMutability": "nonpayable",
      "type": "function"
    },
    {
      "inputs": [
        {
          "internalType": "address",
          "name": "owner",
          "type": "address"
        }
      ],
      "name": "balanceOf",
      "outputs": [
        {
          "internalType": "uint256",
          "name": "",
          "type": "uint256"
        }
      ],
      "stateMutability": "view",
      "type": "function"
    },
    {
      "inputs": [
        {
          "internalType": "uint256",
          "name": "tokenId",
          "type": "uint256"
        }
      ],
      "name": "getApproved",
      "outputs": [
        {
          "internalType": "address",
          "name": "",
          "type": "address"
        }
      ],
      "stateMutability": "view",
      "type": "function"
    },
    {
      "inputs": [
        {
          "internalType": "address",
          "name": "owner",
          "type": "address"
        },
        {
          "internalType": "address",
          "name": "operator",
          "type": "address"
        }
      ],
      "name": "isApprovedForAll",
      "outputs": [
        {
          "internalType": "bool",
          "name": "",
          "type": "bool"
        }
      ],
      "stateMutability": "view",
      "type": "function"
    },
    {
      "inputs": [],
      "name": "name",
      "outputs": [
        {
          "internalType": "string",
          "name": "",
          "type": "string"
        }
      ],
      "stateMutability": "view",
      "type": "function"
    },
    {
      "inputs": [],
      "name": "owner",
      "outputs": [
        {
          "internalType": "address",
          "name": "",
          "type": "address"
        }
      ],
      "stateMutability": "view",
      "type": "function"
    },
    {
      "inputs": [
        {
          "internalType": "uint256",
          "name": "tokenId",
          "type": "uint256"
        }
      ],
      "name": "ownerOf",
      "outputs": [
        {
          "internalType": "address",
          "name": "",
          "type": "address"
        }
      ],
      "stateMutability": "view",
      "type": "function"
    },
    {
      "inputs": [],
      "name": "renounceOwnership",
      "outputs": [],
      "stateMutability": "nonpayable",
      "type": "function"
    },
    {
      "inputs": [
        {
          "internalType": "uint256",
          "name": "tokenId",
          "type": "uint256"
        },
        {
          "internalType": "uint256",
          "name": "salePrice",
          "type": "uint256"
        }
      ],
      "name": "royaltyInfo",
      "outputs": [
        {
          "internalType": "address",
          "name": "receiver",
          "type": "address"
        },
        {
          "internalType": "uint256",
          "name": "royaltyAmount",
          "type": "uint256"
        }
      ],
      "stateMutability": "view",
      "type": "function"
    },
    {
      "inputs": [
        {
          "internalType": "address",
          "name": "to",
          "type": "address"
        },
        {
          "internalType": "string",
          "name": "_tokenURI",
          "type": "string"
        },
        {
          "internalType": "uint256",
          "name": "royaltyFee",
          "type": "uint256"
        }
      ],
      "name": "safeMint",
      "outputs": [],
      "stateMutability": "nonpayable",
      "type": "function"
    },
    {
      "inputs": [
        {
          "internalType": "address",
          "name": "from",
          "type": "address"
        },
        {
          "internalType": "address",
          "name": "to",
          "type": "address"
        },
        {
          "internalType": "uint256",
          "name": "tokenId",
          "type": "uint256"
        }
      ],
      "name": "safeTransferFrom",
      "outputs": [],
      "stateMutability": "nonpayable",
      "type": "function"
    },
    {
      "inputs": [
        {
          "internalType": "address",
          "name": "from",
          "type": "address"
        },
        {
          "internalType": "address",
          "name": "to",
          "type": "address"
        },
        {
          "internalType": "uint256",
          "name": "tokenId",
          "type": "uint256"
        },
        {
          "internalType": "bytes",
          "name": "data",
          "type": "bytes"
        }
      ],
      "name": "safeTransferFrom",
      "outputs": [],
      "stateMutability": "nonpayable",
      "type": "function"
    },
    {
      "inputs": [
        {
          "internalType": "address",
          "name": "operator",
          "type": "address"
        },
        {
          "internalType": "bool",
          "name": "approved",
          "type": "bool"
        }
      ],
      "name": "setApprovalForAll",
      "outputs": [],
      "stateMutability": "nonpayable",
      "type": "function"
    },
    {
      "inputs": [
        {
          "internalType": "bytes4",
          "name": "interfaceId",
          "type": "bytes4"
        }
      ],
      "name": "supportsInterface",
      "outputs": [
        {
          "internalType": "bool",
          "name": "",
          "type": "bool"
        }
      ],
      "stateMutability": "view",
      "type": "function"
    },
    {
      "inputs": [],
      "name": "symbol",
      "outputs": [
        {
          "internalType": "string",
          "name": "",
          "type": "string"
        }
      ],
      "stateMutability": "view",
      "type": "function"
    },
    {
      "inputs": [
        {
          "internalType": "uint256",
          "name": "index",
          "type": "uint256"
        }
      ],
      "name": "tokenByIndex",
      "outputs": [
        {
          "internalType": "uint256",
          "name": "",
          "type": "uint256"
        }
      ],
      "stateMutability": "view",
      "type": "function"
    },
    {
      "inputs": [
        {
          "internalType": "address",
          "name": "owner",
          "type": "address"
        },
        {
          "internalType": "uint256",
          "name": "index",
          "type": "uint256"
        }
      ],
      "name": "tokenOfOwnerByIndex",
      "outputs": [
        {
          "internalType": "uint256",
          "name": "",
          "type": "uint256"
        }
      ],
      "stateMutability": "view",
      "type": "function"
    },
    {
      "inputs": [
        {
          "internalType": "uint256",
          "name": "tokenId",
          "type": "uint256"
        }
      ],
      "name": "tokenURI",
      "outputs": [
        {
          "internalType": "string",
          "name": "",
          "type": "string"
        }
      ],
      "stateMutability": "view",
      "type": "function"
    },
    {
      "inputs": [],
      "name": "totalSupply",
      "outputs": [
        {
          "internalType": "uint256",
          "name": "",
          "type": "uint256"
        }
      ],
      "stateMutability": "view",
      "type": "function"
    },
    {
      "inputs": [
        {
          "internalType": "address",
          "name": "from",
          "type": "address"
        },
        {
          "internalType": "address",
          "name": "to",
          "type": "address"
        },
        {
          "internalType": "uint256",
          "name": "tokenId",
          "type": "uint256"
        }
      ],
      "name": "transferFrom",
      "outputs": [],
      "stateMutability": "nonpayable",
      "type": "function"
    },
    {
      "inputs": [
        {
          "internalType": "address",
          "name": "newOwner",
          "type": "address"
        }
      ],
      "name": "transferOwnership",
      "outputs": [],
      "stateMutability": "nonpayable",
      "type": "function"
    }
  ],
  "bytecode": "0x60806040523480156200001157600080fd5b5060405162003cf238038062003cf28339818101604052810190620000379190620003b0565b818181600090805190602001906200005192919062000163565b5080600190805190602001906200006a92919062000163565b5050506200008d620000816200009560201b60201c565b6200009d60201b60201c565b50506200049a565b600033905090565b6000600b60009054906101000a900473ffffffffffffffffffffffffffffffffffffffff16905081600b60006101000a81548173ffffffffffffffffffffffffffffffffffffffff021916908373ffffffffffffffffffffffffffffffffffffffff1602179055508173ffffffffffffffffffffffffffffffffffffffff168173ffffffffffffffffffffffffffffffffffffffff167f8be0079c531659141344cd1fd0a4f28419497f9722a3daafe3b4186f6b6457e060405160405180910390a35050565b828054620001719062000464565b90600052602060002090601f016020900481019282620001955760008555620001e1565b82601f10620001b057805160ff1916838001178555620001e1565b82800160010185558215620001e1579182015b82811115620001e0578251825591602001919060010190620001c3565b5b509050620001f09190620001f4565b5090565b5b808211156200020f576000816000905550600101620001f5565b5090565b6000604051905090565b600080fd5b600080fd5b600080fd5b600080fd5b6000601f19601f8301169050919050565b7f4e487b7100000000000000000000000000000000000000000000000000000000600052604160045260246000fd5b6200027c8262000231565b810181811067ffffffffffffffff821117156200029e576200029d62000242565b5b80604052505050565b6000620002b362000213565b9050620002c1828262000271565b919050565b600067ffffffffffffffff821115620002e457620002e362000242565b5b620002ef8262000231565b9050602081019050919050565b60005b838110156200031c578082015181840152602081019050620002ff565b838111156200032c576000848401525b50505050565b6000620003496200034384620002c6565b620002a7565b9050828152602081018484840111156200036857620003676200022c565b5b62000375848285620002fc565b509392505050565b600082601f83011262000395576200039462000227565b5b8151620003a784826020860162000332565b91505092915050565b60008060408385031215620003ca57620003c96200021d565b5b600083015167ffffffffffffffff811115620003eb57620003ea62000222565b5b620003f9858286016200037d565b925050602083015167ffffffffffffffff8111156200041d576200041c62000222565b5b6200042b858286016200037d565b9150509250929050565b7f4e487b7100000000000000000000000000000000000000000000000000000000600052602260045260246000fd5b600060028204905060018216806200047d57607f821691505b6020821081141562000494576200049362000435565b5b50919050565b61384880620004aa6000396000f3fe608060405234801561001057600080fd5b50600436106101375760003560e01c80636352211e116100b8578063a22cb4651161007c578063a22cb46514610363578063b88d4fde1461037f578063c772745a1461039b578063c87b56dd146103b7578063e985e9c5146103e7578063f2fde38b1461041757610137565b80636352211e146102bd57806370a08231146102ed578063715018a61461031d5780638da5cb5b1461032757806395d89b411461034557610137565b806323b872dd116100ff57806323b872dd146101f45780632a55205a146102105780632f745c591461024157806342842e0e146102715780634f6ccce71461028d57610137565b806301ffc9a71461013c57806306fdde031461016c578063081812fc1461018a578063095ea7b3146101ba57806318160ddd146101d6575b600080fd5b6101566004803603810190610151919061252f565b610433565b6040516101639190612577565b60405180910390f35b6101746104ad565b604051610181919061262b565b60405180910390f35b6101a4600480360381019061019f9190612683565b61053f565b6040516101b191906126f1565b60405180910390f35b6101d460048036038101906101cf9190612738565b610585565b005b6101de61069d565b6040516101eb9190612787565b60405180910390f35b61020e600480360381019061020991906127a2565b6106aa565b005b61022a600480360381019061022591906127f5565b61070a565b604051610238929190612835565b60405180910390f35b61025b60048036038101906102569190612738565b61077e565b6040516102689190612787565b60405180910390f35b61028b600480360381019061028691906127a2565b610823565b005b6102a760048036038101906102a29190612683565b610843565b6040516102b49190612787565b60405180910390f35b6102d760048036038101906102d29190612683565b6108b4565b6040516102e491906126f1565b60405180910390f35b6103076004803603810190610302919061285e565b61093b565b6040516103149190612787565b60405180910390f35b6103256109f3565b005b61032f610a07565b60405161033c91906126f1565b60405180910390f35b61034d610a31565b60405161035a919061262b565b60405180910390f35b61037d600480360381019061037891906128b7565b610ac3565b005b61039960048036038101906103949190612a2c565b610ad9565b005b6103b560048036038101906103b09190612b50565b610b3b565b005b6103d160048036038101906103cc9190612683565b610bdf565b6040516103de919061262b565b60405180910390f35b61040160048036038101906103fc9190612bbf565b610bf1565b60405161040e9190612577565b60405180910390f35b610431600480360381019061042c919061285e565b610c85565b005b600061043e82610d09565b806104a657507f2a55205a000000000000000000000000000000000000000000000000000000007bffffffffffffffffffffffffffffffffffffffffffffffffffffffff1916827bffffffffffffffffffffffffffffffffffffffffffffffffffffffff1916145b9050919050565b6060600080546104bc90612c2e565b80601f01602080910402602001604051908101604052809291908181526020018280546104e890612c2e565b80156105355780601f1061050a57610100808354040283529160200191610535565b820191906000526020600020905b81548152906001019060200180831161051857829003601f168201915b5050505050905090565b600061054a82610d83565b6004600083815260200190815260200160002060009054906101000a900473ffffffffffffffffffffffffffffffffffffffff169050919050565b6000610590826108b4565b90508073ffffffffffffffffffffffffffffffffffffffff168373ffffffffffffffffffffffffffffffffffffffff161415610601576040517f08c379a00000000000000000000000000000000000000000000000000000000081526004016105f890612cd2565b60405180910390fd5b8073ffffffffffffffffffffffffffffffffffffffff16610620610dce565b73ffffffffffffffffffffffffffffffffffffffff16148061064f575061064e81610649610dce565b610bf1565b5b61068e576040517f08c379a000000000000000000000000000000000000000000000000000000000815260040161068590612d64565b60405180910390fd5b6106988383610dd6565b505050565b6000600880549050905090565b6106bb6106b5610dce565b82610e8f565b6106fa576040517f08c379a00000000000000000000000000000000000000000000000000000000081526004016106f190612df6565b60405180910390fd5b610705838383610f24565b505050565b6000806000600d6000868152602001908152602001600020549050600e600086815260200190815260200160002060009054906101000a900473ffffffffffffffffffffffffffffffffffffffff169250612710818561076a9190612e45565b6107749190612ece565b9150509250929050565b60006107898361093b565b82106107ca576040517f08c379a00000000000000000000000000000000000000000000000000000000081526004016107c190612f71565b60405180910390fd5b600660008473ffffffffffffffffffffffffffffffffffffffff1673ffffffffffffffffffffffffffffffffffffffff168152602001908152602001600020600083815260200190815260200160002054905092915050565b61083e83838360405180602001604052806000815250610ad9565b505050565b600061084d61069d565b821061088e576040517f08c379a000000000000000000000000000000000000000000000000000000000815260040161088590613003565b60405180910390fd5b600882815481106108a2576108a1613023565b5b90600052602060002001549050919050565b6000806108c08361121e565b9050600073ffffffffffffffffffffffffffffffffffffffff168173ffffffffffffffffffffffffffffffffffffffff161415610932576040517f08c379a00000000000000000000000000000000000000000000000000000000081526004016109299061309e565b60405180910390fd5b80915050919050565b60008073ffffffffffffffffffffffffffffffffffffffff168273ffffffffffffffffffffffffffffffffffffffff1614156109ac576040517f08c379a00000000000000000000000000000000000000000000000000000000081526004016109a390613130565b60405180910390fd5b600360008373ffffffffffffffffffffffffffffffffffffffff1673ffffffffffffffffffffffffffffffffffffffff168152602001908152602001600020549050919050565b6109fb61125b565b610a0560006112d9565b565b6000600b60009054906101000a900473ffffffffffffffffffffffffffffffffffffffff16905090565b606060018054610a4090612c2e565b80601f0160208091040260200160405190810160405280929190818152602001828054610a6c90612c2e565b8015610ab95780601f10610a8e57610100808354040283529160200191610ab9565b820191906000526020600020905b815481529060010190602001808311610a9c57829003601f168201915b5050505050905090565b610ad5610ace610dce565b838361139f565b5050565b610aea610ae4610dce565b83610e8f565b610b29576040517f08c379a0000000000000000000000000000000000000000000000000000000008152600401610b2090612df6565b60405180910390fd5b610b358484848461150c565b50505050565b610b4361125b565b610b4d600c611568565b6000610b59600c61157e565b9050610b65848261158c565b610b6f81846115aa565b83600e600083815260200190815260200160002060006101000a81548173ffffffffffffffffffffffffffffffffffffffff021916908373ffffffffffffffffffffffffffffffffffffffff16021790555081600d60008381526020019081526020016000208190555050505050565b6060610bea8261161e565b9050919050565b6000600560008473ffffffffffffffffffffffffffffffffffffffff1673ffffffffffffffffffffffffffffffffffffffff16815260200190815260200160002060008373ffffffffffffffffffffffffffffffffffffffff1673ffffffffffffffffffffffffffffffffffffffff16815260200190815260200160002060009054906101000a900460ff16905092915050565b610c8d61125b565b600073ffffffffffffffffffffffffffffffffffffffff168173ffffffffffffffffffffffffffffffffffffffff161415610cfd576040517f08c379a0000000000000000000000000000000000000000000000000000000008152600401610cf4906131c2565b60405180910390fd5b610d06816112d9565b50565b60007f780e9d63000000000000000000000000000000000000000000000000000000007bffffffffffffffffffffffffffffffffffffffffffffffffffffffff1916827bffffffffffffffffffffffffffffffffffffffffffffffffffffffff19161480610d7c5750610d7b82611731565b5b9050919050565b610d8c81611813565b610dcb576040517f08c379a0000000000000000000000000000000000000000000000000000000008152600401610dc29061309e565b60405180910390fd5b50565b600033905090565b816004600083815260200190815260200160002060006101000a81548173ffffffffffffffffffffffffffffffffffffffff021916908373ffffffffffffffffffffffffffffffffffffffff160217905550808273ffffffffffffffffffffffffffffffffffffffff16610e49836108b4565b73ffffffffffffffffffffffffffffffffffffffff167f8c5be1e5ebec7d5bd14f71427d1e84f3dd0314c0f7b2291e5b200ac8c7c3b92560405160405180910390a45050565b600080610e9b836108b4565b90508073ffffffffffffffffffffffffffffffffffffffff168473ffffffffffffffffffffffffffffffffffffffff161480610edd5750610edc8185610bf1565b5b80610f1b57508373ffffffffffffffffffffffffffffffffffffffff16610f038461053f565b73ffffffffffffffffffffffffffffffffffffffff16145b91505092915050565b8273ffffffffffffffffffffffffffffffffffffffff16610f44826108b4565b73ffffffffffffffffffffffffffffffffffffffff1614610f9a576040517f08c379a0000000000000000000000000000000000000000000000000000000008152600401610f9190613254565b60405180910390fd5b600073ffffffffffffffffffffffffffffffffffffffff168273ffffffffffffffffffffffffffffffffffffffff16141561100a576040517f08c379a0000000000000000000000000000000000000000000000000000000008152600401611001906132e6565b60405180910390fd5b6110178383836001611854565b8273ffffffffffffffffffffffffffffffffffffffff16611037826108b4565b73ffffffffffffffffffffffffffffffffffffffff161461108d576040517f08c379a000000000000000000000000000000000000000000000000000000000815260040161108490613254565b60405180910390fd5b6004600082815260200190815260200160002060006101000a81549073ffffffffffffffffffffffffffffffffffffffff02191690556001600360008573ffffffffffffffffffffffffffffffffffffffff1673ffffffffffffffffffffffffffffffffffffffff168152602001908152602001600020600082825403925050819055506001600360008473ffffffffffffffffffffffffffffffffffffffff1673ffffffffffffffffffffffffffffffffffffffff16815260200190815260200160002060008282540192505081905550816002600083815260200190815260200160002060006101000a81548173ffffffffffffffffffffffffffffffffffffffff021916908373ffffffffffffffffffffffffffffffffffffffff160217905550808273ffffffffffffffffffffffffffffffffffffffff168473ffffffffffffffffffffffffffffffffffffffff167fddf252ad1be2c89b69c2b068fc378daa952ba7f163c4a11628f55a4df523b3ef60405160405180910390a46112198383836001611867565b505050565b60006002600083815260200190815260200160002060009054906101000a900473ffffffffffffffffffffffffffffffffffffffff169050919050565b611263610dce565b73ffffffffffffffffffffffffffffffffffffffff16611281610a07565b73ffffffffffffffffffffffffffffffffffffffff16146112d7576040517f08c379a00000000000000000000000000000000000000000000000000000000081526004016112ce90613352565b60405180910390fd5b565b6000600b60009054906101000a900473ffffffffffffffffffffffffffffffffffffffff16905081600b60006101000a81548173ffffffffffffffffffffffffffffffffffffffff021916908373ffffffffffffffffffffffffffffffffffffffff1602179055508173ffffffffffffffffffffffffffffffffffffffff168173ffffffffffffffffffffffffffffffffffffffff167f8be0079c531659141344cd1fd0a4f28419497f9722a3daafe3b4186f6b6457e060405160405180910390a35050565b8173ffffffffffffffffffffffffffffffffffffffff168373ffffffffffffffffffffffffffffffffffffffff16141561140e576040517f08c379a0000000000000000000000000000000000000000000000000000000008152600401611405906133be565b60405180910390fd5b80600560008573ffffffffffffffffffffffffffffffffffffffff1673ffffffffffffffffffffffffffffffffffffffff16815260200190815260200160002060008473ffffffffffffffffffffffffffffffffffffffff1673ffffffffffffffffffffffffffffffffffffffff16815260200190815260200160002060006101000a81548160ff0219169083151502179055508173ffffffffffffffffffffffffffffffffffffffff168373ffffffffffffffffffffffffffffffffffffffff167f17307eab39ab6107e8899845ad3d59bd9653f200f220920489ca2b5937696c31836040516114ff9190612577565b60405180910390a3505050565b611517848484610f24565b6115238484848461186d565b611562576040517f08c379a000000000000000000000000000000000000000000000000000000000815260040161155990613450565b60405180910390fd5b50505050565b6001816000016000828254019250508190555050565b600081600001549050919050565b6115a6828260405180602001604052806000815250611a04565b5050565b6115b382611813565b6115f2576040517f08c379a00000000000000000000000000000000000000000000000000000000081526004016115e9906134e2565b60405180910390fd5b80600a60008481526020019081526020016000209080519060200190611619929190612420565b505050565b606061162982610d83565b6000600a6000848152602001908152602001600020805461164990612c2e565b80601f016020809104026020016040519081016040528092919081815260200182805461167590612c2e565b80156116c25780601f10611697576101008083540402835291602001916116c2565b820191906000526020600020905b8154815290600101906020018083116116a557829003601f168201915b5050505050905060006116d3611a5f565b90506000815114156116e957819250505061172c565b60008251111561171e57808260405160200161170692919061353e565b6040516020818303038152906040529250505061172c565b61172784611a76565b925050505b919050565b60007f80ac58cd000000000000000000000000000000000000000000000000000000007bffffffffffffffffffffffffffffffffffffffffffffffffffffffff1916827bffffffffffffffffffffffffffffffffffffffffffffffffffffffff191614806117fc57507f5b5e139f000000000000000000000000000000000000000000000000000000007bffffffffffffffffffffffffffffffffffffffffffffffffffffffff1916827bffffffffffffffffffffffffffffffffffffffffffffffffffffffff1916145b8061180c575061180b82611ade565b5b9050919050565b60008073ffffffffffffffffffffffffffffffffffffffff166118358361121e565b73ffffffffffffffffffffffffffffffffffffffff1614159050919050565b6118618484846001611b48565b50505050565b50505050565b600061188e8473ffffffffffffffffffffffffffffffffffffffff16611ca8565b156119f7578373ffffffffffffffffffffffffffffffffffffffff1663150b7a026118b7610dce565b8786866040518563ffffffff1660e01b81526004016118d994939291906135b7565b602060405180830381600087803b1580156118f357600080fd5b505af192505050801561192457506040513d601f19601f820116820180604052508101906119219190613618565b60015b6119a7573d8060008114611954576040519150601f19603f3d011682016040523d82523d6000602084013e611959565b606091505b5060008151141561199f576040517f08c379a000000000000000000000000000000000000000000000000000000000815260040161199690613450565b60405180910390fd5b805181602001fd5b63150b7a0260e01b7bffffffffffffffffffffffffffffffffffffffffffffffffffffffff1916817bffffffffffffffffffffffffffffffffffffffffffffffffffffffff1916149150506119fc565b600190505b949350505050565b611a0e8383611ccb565b611a1b600084848461186d565b611a5a576040517f08c379a0000000000000000000000000000000000000000000000000000000008152600401611a5190613450565b60405180910390fd5b505050565b606060405180602001604052806000815250905090565b6060611a8182610d83565b6000611a8b611a5f565b90506000815111611aab5760405180602001604052806000815250611ad6565b80611ab584611ee9565b604051602001611ac692919061353e565b6040516020818303038152906040525b915050919050565b60007f01ffc9a7000000000000000000000000000000000000000000000000000000007bffffffffffffffffffffffffffffffffffffffffffffffffffffffff1916827bffffffffffffffffffffffffffffffffffffffffffffffffffffffff1916149050919050565b611b5484848484611fc1565b6001811115611b98576040517f08c379a0000000000000000000000000000000000000000000000000000000008152600401611b8f906136b7565b60405180910390fd5b6000829050600073ffffffffffffffffffffffffffffffffffffffff168573ffffffffffffffffffffffffffffffffffffffff161415611be057611bdb81611fc7565b611c1f565b8373ffffffffffffffffffffffffffffffffffffffff168573ffffffffffffffffffffffffffffffffffffffff1614611c1e57611c1d8582612010565b5b5b600073ffffffffffffffffffffffffffffffffffffffff168473ffffffffffffffffffffffffffffffffffffffff161415611c6257611c5d8161217d565b611ca1565b8473ffffffffffffffffffffffffffffffffffffffff168473ffffffffffffffffffffffffffffffffffffffff1614611ca057611c9f848261224e565b5b5b5050505050565b6000808273ffffffffffffffffffffffffffffffffffffffff163b119050919050565b600073ffffffffffffffffffffffffffffffffffffffff168273ffffffffffffffffffffffffffffffffffffffff161415611d3b576040517f08c379a0000000000000000000000000000000000000000000000000000000008152600401611d3290613723565b60405180910390fd5b611d4481611813565b15611d84576040517f08c379a0000000000000000000000000000000000000000000000000000000008152600401611d7b9061378f565b60405180910390fd5b611d92600083836001611854565b611d9b81611813565b15611ddb576040517f08c379a0000000000000000000000000000000000000000000000000000000008152600401611dd29061378f565b60405180910390fd5b6001600360008473ffffffffffffffffffffffffffffffffffffffff1673ffffffffffffffffffffffffffffffffffffffff16815260200190815260200160002060008282540192505081905550816002600083815260200190815260200160002060006101000a81548173ffffffffffffffffffffffffffffffffffffffff021916908373ffffffffffffffffffffffffffffffffffffffff160217905550808273ffffffffffffffffffffffffffffffffffffffff16600073ffffffffffffffffffffffffffffffffffffffff167fddf252ad1be2c89b69c2b068fc378daa952ba7f163c4a11628f55a4df523b3ef60405160405180910390a4611ee5600083836001611867565b5050565b606060006001611ef8846122cd565b01905060008167ffffffffffffffff811115611f1757611f16612901565b5b6040519080825280601f01601f191660200182016040528015611f495781602001600182028036833780820191505090505b509050600082602001820190505b600115611fb6578080600190039150507f3031323334353637383961626364656600000000000000000000000000000000600a86061a8153600a8581611fa057611f9f612e9f565b5b0494506000851415611fb157611fb6565b611f57565b819350505050919050565b50505050565b6008805490506009600083815260200190815260200160002081905550600881908060018154018082558091505060019003906000526020600020016000909190919091505550565b6000600161201d8461093b565b61202791906137af565b905060006007600084815260200190815260200160002054905081811461210c576000600660008673ffffffffffffffffffffffffffffffffffffffff1673ffffffffffffffffffffffffffffffffffffffff168152602001908152602001600020600084815260200190815260200160002054905080600660008773ffffffffffffffffffffffffffffffffffffffff1673ffffffffffffffffffffffffffffffffffffffff168152602001908152602001600020600084815260200190815260200160002081905550816007600083815260200190815260200160002081905550505b6007600084815260200190815260200160002060009055600660008573ffffffffffffffffffffffffffffffffffffffff1673ffffffffffffffffffffffffffffffffffffffff16815260200190815260200160002060008381526020019081526020016000206000905550505050565b6000600160088054905061219191906137af565b90506000600960008481526020019081526020016000205490506000600883815481106121c1576121c0613023565b5b9060005260206000200154905080600883815481106121e3576121e2613023565b5b906000526020600020018190555081600960008381526020019081526020016000208190555060096000858152602001908152602001600020600090556008805480612232576122316137e3565b5b6001900381819060005260206000200160009055905550505050565b60006122598361093b565b905081600660008573ffffffffffffffffffffffffffffffffffffffff1673ffffffffffffffffffffffffffffffffffffffff168152602001908152602001600020600083815260200190815260200160002081905550806007600084815260200190815260200160002081905550505050565b600080600090507a184f03e93ff9f4daa797ed6e38ed64bf6a1f010000000000000000831061232b577a184f03e93ff9f4daa797ed6e38ed64bf6a1f010000000000000000838161232157612320612e9f565b5b0492506040810190505b6d04ee2d6d415b85acef81000000008310612368576d04ee2d6d415b85acef8100000000838161235e5761235d612e9f565b5b0492506020810190505b662386f26fc10000831061239757662386f26fc10000838161238d5761238c612e9f565b5b0492506010810190505b6305f5e10083106123c0576305f5e10083816123b6576123b5612e9f565b5b0492506008810190505b61271083106123e55761271083816123db576123da612e9f565b5b0492506004810190505b6064831061240857606483816123fe576123fd612e9f565b5b0492506002810190505b600a8310612417576001810190505b80915050919050565b82805461242c90612c2e565b90600052602060002090601f01602090048101928261244e5760008555612495565b82601f1061246757805160ff1916838001178555612495565b82800160010185558215612495579182015b82811115612494578251825591602001919060010190612479565b5b5090506124a291906124a6565b5090565b5b808211156124bf5760008160009055506001016124a7565b5090565b6000604051905090565b600080fd5b600080fd5b60007fffffffff0000000000000000000000000000000000000000000000000000000082169050919050565b61250c816124d7565b811461251757600080fd5b50565b60008135905061252981612503565b92915050565b600060208284031215612545576125446124cd565b5b60006125538482850161251a565b91505092915050565b60008115159050919050565b6125718161255c565b82525050565b600060208201905061258c6000830184612568565b92915050565b600081519050919050565b600082825260208201905092915050565b60005b838110156125cc5780820151818401526020810190506125b1565b838111156125db576000848401525b50505050565b6000601f19601f8301169050919050565b60006125fd82612592565b612607818561259d565b93506126178185602086016125ae565b612620816125e1565b840191505092915050565b6000602082019050818103600083015261264581846125f2565b905092915050565b6000819050919050565b6126608161264d565b811461266b57600080fd5b50565b60008135905061267d81612657565b92915050565b600060208284031215612699576126986124cd565b5b60006126a78482850161266e565b91505092915050565b600073ffffffffffffffffffffffffffffffffffffffff82169050919050565b60006126db826126b0565b9050919050565b6126eb816126d0565b82525050565b600060208201905061270660008301846126e2565b92915050565b612715816126d0565b811461272057600080fd5b50565b6000813590506127328161270c565b92915050565b6000806040838503121561274f5761274e6124cd565b5b600061275d85828601612723565b925050602061276e8582860161266e565b9150509250929050565b6127818161264d565b82525050565b600060208201905061279c6000830184612778565b92915050565b6000806000606084860312156127bb576127ba6124cd565b5b60006127c986828701612723565b93505060206127da86828701612723565b92505060406127eb8682870161266e565b9150509250925092565b6000806040838503121561280c5761280b6124cd565b5b600061281a8582860161266e565b925050602061282b8582860161266e565b9150509250929050565b600060408201905061284a60008301856126e2565b6128576020830184612778565b9392505050565b600060208284031215612874576128736124cd565b5b600061288284828501612723565b91505092915050565b6128948161255c565b811461289f57600080fd5b50565b6000813590506128b18161288b565b92915050565b600080604083850312156128ce576128cd6124cd565b5b60006128dc85828601612723565b92505060206128ed858286016128a2565b9150509250929050565b600080fd5b600080fd5b7f4e487b7100000000000000000000000000000000000000000000000000000000600052604160045260246000fd5b612939826125e1565b810181811067ffffffffffffffff8211171561295857612957612901565b5b80604052505050565b600061296b6124c3565b90506129778282612930565b919050565b600067ffffffffffffffff82111561299757612996612901565b5b6129a0826125e1565b9050602081019050919050565b82818337600083830152505050565b60006129cf6129ca8461297c565b612961565b9050828152602081018484840111156129eb576129ea6128fc565b5b6129f68482856129ad565b509392505050565b600082601f830112612a1357612a126128f7565b5b8135612a238482602086016129bc565b91505092915050565b60008060008060808587031215612a4657612a456124cd565b5b6000612a5487828801612723565b9450506020612a6587828801612723565b9350506040612a768782880161266e565b925050606085013567ffffffffffffffff811115612a9757612a966124d2565b5b612aa3878288016129fe565b91505092959194509250565b600067ffffffffffffffff821115612aca57612ac9612901565b5b612ad3826125e1565b9050602081019050919050565b6000612af3612aee84612aaf565b612961565b905082815260208101848484011115612b0f57612b0e6128fc565b5b612b1a8482856129ad565b509392505050565b600082601f830112612b3757612b366128f7565b5b8135612b47848260208601612ae0565b91505092915050565b600080600060608486031215612b6957612b686124cd565b5b6000612b7786828701612723565b935050602084013567ffffffffffffffff811115612b9857612b976124d2565b5b612ba486828701612b22565b9250506040612bb58682870161266e565b9150509250925092565b60008060408385031215612bd657612bd56124cd565b5b6000612be485828601612723565b9250506020612bf585828601612723565b9150509250929050565b7f4e487b7100000000000000000000000000000000000000000000000000000000600052602260045260246000fd5b60006002820490506001821680612c4657607f821691505b60208210811415612c5a57612c59612bff565b5b50919050565b7f4552433732313a20617070726f76616c20746f2063757272656e74206f776e6560008201527f7200000000000000000000000000000000000000000000000000000000000000602082015250565b6000612cbc60218361259d565b9150612cc782612c60565b604082019050919050565b60006020820190508181036000830152612ceb81612caf565b9050919050565b7f4552433732313a20617070726f76652063616c6c6572206973206e6f7420746f60008201527f6b656e206f776e6572206f7220617070726f76656420666f7220616c6c000000602082015250565b6000612d4e603d8361259d565b9150612d5982612cf2565b604082019050919050565b60006020820190508181036000830152612d7d81612d41565b9050919050565b7f4552433732313a2063616c6c6572206973206e6f7420746f6b656e206f776e6560008201527f72206f7220617070726f76656400000000000000000000000000000000000000602082015250565b6000612de0602d8361259d565b9150612deb82612d84565b604082019050919050565b60006020820190508181036000830152612e0f81612dd3565b9050919050565b7f4e487b7100000000000000000000000000000000000000000000000000000000600052601160045260246000fd5b6000612e508261264d565b9150612e5b8361264d565b9250817fffffffffffffffffffffffffffffffffffffffffffffffffffffffffffffffff0483118215151615612e9457612e93612e16565b5b828202905092915050565b7f4e487b7100000000000000000000000000000000000000000000000000000000600052601260045260246000fd5b6000612ed98261264d565b9150612ee48361264d565b925082612ef457612ef3612e9f565b5b828204905092915050565b7f455243373231456e756d657261626c653a206f776e657220696e646578206f7560008201527f74206f6620626f756e6473000000000000000000000000000000000000000000602082015250565b6000612f5b602b8361259d565b9150612f6682612eff565b604082019050919050565b60006020820190508181036000830152612f8a81612f4e565b9050919050565b7f455243373231456e756d657261626c653a20676c6f62616c20696e646578206f60008201527f7574206f6620626f756e64730000000000000000000000000000000000000000602082015250565b6000612fed602c8361259d565b9150612ff882612f91565b604082019050919050565b6000602082019050818103600083015261301c81612fe0565b9050919050565b7f4e487b7100000000000000000000000000000000000000000000000000000000600052603260045260246000fd5b7f4552433732313a20696e76616c696420746f6b656e2049440000000000000000600082015250565b600061308860188361259d565b915061309382613052565b602082019050919050565b600060208201905081810360008301526130b78161307b565b9050919050565b7f4552433732313a2061646472657373207a65726f206973206e6f74206120766160008201527f6c6964206f776e65720000000000000000000000000000000000000000000000602082015250565b600061311a60298361259d565b9150613125826130be565b604082019050919050565b600060208201905081810360008301526131498161310d565b9050919050565b7f4f776e61626c653a206e6577206f776e657220697320746865207a65726f206160008201527f6464726573730000000000000000000000000000000000000000000000000000602082015250565b60006131ac60268361259d565b91506131b782613150565b604082019050919050565b600060208201905081810360008301526131db8161319f565b9050919050565b7f4552433732313a207472616e736665722066726f6d20696e636f72726563742060008201527f6f776e6572000000000000000000000000000000000000000000000000000000602082015250565b600061323e60258361259d565b9150613249826131e2565b604082019050919050565b6000602082019050818103600083015261326d81613231565b9050919050565b7f4552433732313a207472616e7366657220746f20746865207a65726f2061646460008201527f7265737300000000000000000000000000000000000000000000000000000000602082015250565b60006132d060248361259d565b91506132db82613274565b604082019050919050565b600060208201905081810360008301526132ff816132c3565b9050919050565b7f4f776e61626c653a2063616c6c6572206973206e6f7420746865206f776e6572600082015250565b600061333c60208361259d565b915061334782613306565b602082019050919050565b6000602082019050818103600083015261336b8161332f565b9050919050565b7f4552433732313a20617070726f766520746f2063616c6c657200000000000000600082015250565b60006133a860198361259d565b91506133b382613372565b602082019050919050565b600060208201905081810360008301526133d78161339b565b9050919050565b7f4552433732313a207472616e7366657220746f206e6f6e20455243373231526560008201527f63656976657220696d706c656d656e7465720000000000000000000000000000602082015250565b600061343a60328361259d565b9150613445826133de565b604082019050919050565b600060208201905081810360008301526134698161342d565b9050919050565b7f45524337323155524953746f726167653a2055524920736574206f66206e6f6e60008201527f6578697374656e7420746f6b656e000000000000000000000000000000000000602082015250565b60006134cc602e8361259d565b91506134d782613470565b604082019050919050565b600060208201905081810360008301526134fb816134bf565b9050919050565b600081905092915050565b600061351882612592565b6135228185613502565b93506135328185602086016125ae565b80840191505092915050565b600061354a828561350d565b9150613556828461350d565b91508190509392505050565b600081519050919050565b600082825260208201905092915050565b600061358982613562565b613593818561356d565b93506135a38185602086016125ae565b6135ac816125e1565b840191505092915050565b60006080820190506135cc60008301876126e2565b6135d960208301866126e2565b6135e66040830185612778565b81810360608301526135f8818461357e565b905095945050505050565b60008151905061361281612503565b92915050565b60006020828403121561362e5761362d6124cd565b5b600061363c84828501613603565b91505092915050565b7f455243373231456e756d657261626c653a20636f6e736563757469766520747260008201527f616e7366657273206e6f7420737570706f727465640000000000000000000000602082015250565b60006136a160358361259d565b91506136ac82613645565b604082019050919050565b600060208201905081810360008301526136d081613694565b9050919050565b7f4552433732313a206d696e7420746f20746865207a65726f2061646472657373600082015250565b600061370d60208361259d565b9150613718826136d7565b602082019050919050565b6000602082019050818103600083015261373c81613700565b9050919050565b7f4552433732313a20746f6b656e20616c7265616479206d696e74656400000000600082015250565b6000613779601c8361259d565b915061378482613743565b602082019050919050565b600060208201905081810360008301526137a88161376c565b9050919050565b60006137ba8261264d565b91506137c58361264d565b9250828210156137d8576137d7612e16565b5b828203905092915050565b7f4e487b7100000000000000000000000000000000000000000000000000000000600052603160045260246000fdfea264697066735822122070241540178237f8f7c302bdcd92939aba5d85c1c4db54e8679615b6cb45482d64736f6c63430008090033",
  "linkReferences": {},
  "deployedLinkReferences": {}
}